:04000000FEEF3FF0E0
:100800000034147A116A132808F209A80C540990CC
:10081000137A147614CE1124142C14BC131C14AEA9
:1008200013960D220DA013007EEC09F00009D8B438
:100830001CEF04F01EEF04F05EEF04F02FEF04F065
:10084000C8EC09F0A9EF04F03DEC0AF0A9EF04F0C0
:10085000020E236E2FEC0AF0000EA9EF04F013C075
:100860003CF014C03DF020EE07F002D842EF04F057
:100870000500FA6EDE50FD6EDE50FE6EF850FF6E23
:10088000FA5012003E6E3F6A3F50000AD8B44BEF58
:1008900004F028EF04F03E50010AD8B428EF04F029
:1008A000030AD8B420EF04F0010AD8B424EF04F00E
:1008B000070AD8B428EF04F028EF04F073EC09F02D
:1008C0000009D8B466EF04F068EF04F0A8EF04F074
:1008D0002450030B0009D8B470EF04F072EF04F059
:1008E0007EEF04F0010E3E6E2450030B3F6E3E502F
:1008F0003F5E24503F18FC0B3F18246E60007BF0D5
:10090000D9FF60007FF0DAFFDF50426E1E4A1F2AD7
:100910002006D8A0210620502110D8A492EF04F080
:1009200094EF04F09CEF04F054EC06F03E6E3E5061
:10093000406E416AA0EF04F0000E416E030E406E5F
:1009400040C043F04250FCEC09F04350A9EF04F0E2
:10095000030E12002488CBEF04F02CEC0AF0080EF2
:10096000F8EF04F02CEC0AF0070EF8EF04F0202862
:1009700001EC0AF0040EF8EF04F0070E2218D8B4C8
:10098000C4EF04F0C6EF04F0C8EF04F02FEC0AF057
:10099000000EF8EF04F00DC03CF00EC03DF002D8A0
:1009A000DCEF04F00500FA6E0150FD6E0250FE6EA1
:1009B000F850FF6EFA5012003E6E3F6A3F50000A38
:1009C000D8B4E5EF04F0BDEF04F03E50010AD8B40E
:1009D000BDEF04F0030AD8B4B2EF04F0010AD8B4B2
:1009E000ADEF04F0070AD8B4B7EF04F0BDEF04F0A0
:1009F000120089EC09F00009D8A401EF05F003EF1B
:100A000005F006EF05F0040E44EF05F02450030B4B
:100A10000009D8B40EEF05F010EF05F01CEF05F05B
:100A2000010E406E2450030B416E4050415E245035
:100A30004118FC0B4118246E2006D8A02106205036
:100A40002110D8B426EF05F028EF05F035EF05F0BA
:100A500029EC0AF060007BF0D9FF60007FF0DAFF3C
:100A6000DF6E1E4A1F2A03EF05F0AAEC04F0426E67
:100A700029EC0AF060007BF0D9FF60007FF0DAFF1C
:100A8000DF6E1E4A1F2A42501200336EBC84010ED4
:100A9000346E24B64EEF05F050EF05F08DEF05F003
:100AA00033C01DF024942486FC0E2416000E236E01
:100AB0000F0E226E010E1C6EF40E1B6E2488820E29
:100AC000016E140E026E000E0D6E000E0E6E820E82
:100AD000036E140E046E000E0F6E000E106E820E6A
:100AE000056E140E066E000E116E000E126E820E52
:100AF000076E140E086E000E136E000E146E7E0E3E
:100B0000096E140E0A6E000E156E000E166EF1ECD4
:100B100009F00DEC09F0000E346E34501200BFECF9
:100B200009F0BC88520E4C6E2B0E4B6E000EE82E58
:100B3000FED74B2EFCD74C2EFAD700D0800E316E4C
:100B4000000E326E310E466E000E476E000E496E7C
:100B5000020E486E500E6DEC07F02F0E466E000E22
:100B6000476E000E496E020E486E500E11EC08F0F2
:100B7000150E4B6EC60EE82EFED74B2EFCD700D0BE
:100B8000BC98040E2F18D8A4C8EF05F0CAEF05F0E2
:100B9000CDEF05F0BB909EEF05F0BB809EEF05F01A
:100BA000FEEF3FF0000EBA6E000EBB6E000EBC6E84
:100BB000C268F80EC36ECB0EC46E000E3A01606FB1
:100BC000000E506F000E406F000E816F000E516FCF
:100BD000000E416F000E616F000E426F060E526FE5
:100BE000080E626F436953696369446954696469B3
:100BF000080E846F5B51CF0B20095B6F5A51CF0BEE
:100C000020095A6F5B51FC0B02095B6F5A51FC0BB8
:100C100002095A6F090EE56F230E096F240E0A6F41
:100C20000A0EE66F1200376E33503410D8B41BEF43
:100C300006F01DEF06F03BEF06F03750020D010EF7
:100C4000F324D96E000EF420DA6E6000CFF0DEFFE0
:100C50006000D3F0DDFF3750020D0D0EF324D96E86
:100C6000000EF420DA6E6000D7F0DEFF6000DBF0EB
:100C7000DDFF53EF06F03750020D010EF324D96E5D
:100C8000000EF420DA6E820EDE6E140EDD6E37502A
:100C9000020D0D0EF324D96E000EF420DA6E000E54
:100CA000DE6E000EDD6E1200248867EF06F02CEC7D
:100CB0000AF0070E90EF06F0202801EC0AF0030E70
:100CC00090EF06F02FEC0AF00A0E90EF06F00DC040
:100CD0003CF00EC03DF002D878EF06F00500FA6E49
:100CE0000150FD6E0250FE6EF850FF6EFA50120079
:100CF0003E6E3F6A3F50000AD8B481EF06F062EFC3
:100D000006F03E50010AD8B462EF06F0030AD8B4E8
:100D100057EF06F0060AD8B45CEF06F062EF06F073
:100D20001200F1EC09F0020E236EA3EF06F0C8ECFE
:100D300009F0CAEF06F03DEC0AF0CAEF06F0D7EC76
:100D400009F0CAEF06F00FC03CF010C03DF020EEF5
:100D500003F002D8B6EF06F00500FA6EDE50FD6E25
:100D6000DE50FE6EF850FF6EFA5012003E6E3F6A83
:100D70003F50000AD8B4BFEF06F09FEF06F03E5098
:100D8000020AD8B497EF06F0010AD8B49BEF06F038
:100D90009FEF06F01200FC0E2416020E236E249420
:100DA000DDEF06F0C8EC09F004EF07F03DEC0AF0C7
:100DB00004EF07F00F0E04EF07F011C03CF012C073
:100DC0003DF020EE05F002D8F0EF06F00500FA6ED7
:100DD000DE50FD6EDE50FE6EF850FF6EFA501200CF
:100DE0003E6E3F6A3F50000AD8B4F9EF06F0DAEFE2
:100DF00006F03E50020AD8B4D2EF06F0010AD8B489
:100E0000D6EF06F0DAEF06F012003901A7A30BEFD8
:100E100007F00DEF07F00FEF07F03BEF07F0A7A18A
:100E200014EF07F016EF07F018EF07F03BEF07F0AD
:100E30003D0163A51EEF07F020EF07F022EF07F05A
:100E40003BEF07F063AF27EF07F029EF07F02BEF39
:100E500007F03BEF07F060A930EF07F032EF07F043
:100E600034EF07F03BEF07F060AB39EF07F03BEFF3
:100E700007F005EF07F012009AEC07F02450030B7F
:100E80000009D8B446EF07F048EF07F054EF07F039
:100E90007EEC09F00009D8B450EF07F052EF07F0EC
:100EA00054EF07F0100E226E2250020D010EF324B3
:100EB000F66E080EF420F76E02D86BEF07F005000F
:100EC000FA6E0900F550FD6E0900F550FE6EF850FF
:100ED000FF6EFA501200226E12004A6E4A5045EC24
:100EE00005F00009D8B477EF07F079EF07F06EEF5F
:100EF00007F046C033F047C034F048C035F049C071
:100F000036F02FEC09F0000E386E000E396E000E30
:100F10003A6E000E3B6E5BEC09F006EC0AF0D2EC88
:100F200008F0E806D8B497EF07F099EF07F08FEFD5
:100F300007F01200AAEC09F00009D8B4A2EF07F0FC
:100F4000A4EF07F0A8EF07F038EC0AF0C3EF07F0C2
:100F500094EC09F00009D8B4B0EF07F0B2EF07F055
:100F6000B7EF07F032EC0AF02494C3EF07F09FECE0
:100F700009F00009D8B4BFEF07F0C1EF07F0C3EFE5
:100F800007F035EC0AF01200446E010E456E24B4F1
:100F9000CCEF07F0CEEF07F0E9EF07F02484000E66
:100FA000456E205001EC0AF04450D8B4DAEF07F057
:100FB000DCEF07F0E2EF07F0040E226EBDEC08F064
:100FC000E6EF07F0030E226EB5EC09F0BC941EECC0
:100FD00009F04550120020EE02F03C50D9263D5059
:100FE000DA226F0078FF33F06F0074FF34F0600096
:100FF000F3F0D9FF6000F7F0DAFF6F0078FF35F00B
:101000006F0074FF36F02FEC09F0000E386E000E02
:10101000396E000E3A6E000E3B6E67EC09F0020E60
:1010200012004A6E4A5045EC05F00009D8B41BEF97
:1010300008F01DEF08F012EF08F046C033F047C08B
:1010400034F048C035F049C036F02FEC09F00AEC16
:101050000AF0D2EC08F0E806D8B431EF08F033EF2C
:1010600008F029EF08F01200CA0EF66E130EF76EA4
:10107000000EF86E00EE4DF010EE0CF009006F005F
:10108000D7FFEEFFE550E150F9E100EE01F0320E3E
:10109000EE6AE806FDE1000EF86E00018FEF05F044
:1010A0003CC033F03DC034F0000E366E010E356E9C
:1010B0002FEC09F0000E386E000E396E000E3A6EFD
:1010C000000E3B6E67EC09F0040E12003CC033F0DA
:1010D0003DC034F0000E366E020E356E2FEC09F076
:1010E000000E386E000E396E000E3A6E000E3B6E2A
:1010F00067EC09F0020E12003CC033F03DC034F042
:10110000000E366E010E356E2FEC09F0000E386EB3
:10111000000E396E000E3A6E000E3B6E67EC09F061
:10112000020E12003CC033F03DC034F0000E366EAB
:10113000020E356E2FEC09F0000E386E000E396E7F
:10114000000E3A6E000E3B6E67EC09F0040E1200C2
:10115000BC84240E3D015D6F010E5E6F5E8F5E915B
:10116000100E5F6F030E656F000E636F000E646FED
:10117000000E606F5669BC9412002450FC0B0209EB
:10118000246E20042110D8A4C8EF08F0CAEF08F09C
:10119000CCEF08F0AAEC04F0D8801D34FCEC09F088
:1011A000040E1200010E336E24B4D9EF08F0DBEF09
:1011B00008F0E5EF08F024961D68F1EC09F040EC2A
:1011C00009F0EBEC09F023C033F03350120020ECAF
:1011D0000AF01DEC0AF00009D8B4F1EF08F0F3EFC3
:1011E00008F0F9EF08F0000E01EC0AF0000EFCEC3C
:1011F00009F0000E1200000E3901C06F000EC16F21
:10120000000EC26F000EC36F000EC46F000EC56FDC
:10121000000EC66F000EC76F12003D015DBF13EFD9
:1012200009F015EF09F01DEF09F0000E636F000ED5
:10123000646F000E606F56695D8F120026EF09F033
:1012400005EC07F0BC843CEC07F0BC9424B42BEF15
:1012500009F02DEF09F020EF09F000F0120024A8AA
:1012600034EF09F036EF09F03FEF09F033C01EF01C
:1012700034C01FF035C020F036C021F02498120091
:10128000390197959797979197933D01649164954C
:10129000649F649D64936093609560911200600EFA
:1012A0003901D96F000EDB6F000EDD6F080EDF6FA6
:1012B000000EDE6F120038C033F039C034F03AC08F
:1012C00035F03BC036F0020E13EC06F0120038C0C9
:1012D00033F039C034F03AC035F03BC036F0000E80
:1012E00013EC06F012003D0162BB79EF09F07CEFD0
:1012F00009F0010E7DEF09F0000E12003D015EBB0A
:1013000084EF09F087EF09F0010E88EF09F0000E75
:1013100012003D0162B18FEF09F092EF09F0010E6A
:1013200093EF09F0000E12003D0163B59AEF09F04A
:101330009DEF09F0010E9EEF09F0000E12003D0135
:1013400060B9A5EF09F0A8EF09F0010EA9EF09F0C7
:10135000000E12003D0163BFB0EF09F0B3EF09F0DA
:10136000010EB4EF09F0000E12002450FC0B02092C
:10137000246E1D501D24FCEC09F0030E1200FBEC42
:1013800008F0A8EC08F0D2EC05F04FEC09F01200E0
:10139000205001EC0AF03D016483BDEC08F012001E
:1013A000F7EC09F02494020E236E0F0E1200F7ECF6
:1013B00009F02494000E236E0F0E120023EC0AF0A5
:1013C00020EC0AF01AEC0AF01200000001020304FB
:1013D00005060708090A3D015D9F000E636F6285DF
:1013E0001200000E3D01636F0F0E601712003D01E9
:1013F0005D9F62855D8F1200336E6000CFF055FDFA
:101400001200336E6000CFF056FD1200000EC4ECE7
:1014100007F01200010EC4EC07F0120023EC0AF0F2
:10142000090E120026EC0AF0040E120026EC0AF057
:10143000030E120024940F0E12003D0156511200AB
:101440003D015D9B12003D015E8D12003D015E9DE0
:1014500012003D01545112003D015D8D12003D010D
:101460005D9D12003D01639512003D0160991200DF
:101470003D01639F1200010E1200020E1200050EC4
:061480001200010E120033
:047FFC0034EF08F066
:020000040020DA
:10000000FF0FFF0FFF0FFF0FFF0FFF0FFF0FFF0F80
:020000040030CA
:0A0000008CFFF7FF9FFFFFFFFFFFDB
:00000001FF
