:04000000FEEF3FF0E0
:10080000004C14981188132808960AC60CF809AEF3
:100810001392148E14EC1136143E14DA132E14CCE9
:1008200013B40D400DBE13008DEC09F00009D8B4CF
:100830001CEF04F01EEF04F05EEF04F02FEF04F065
:10084000D7EC09F0A9EF04F049EC0AF0A9EF04F0A5
:10085000020E236E3BEC0AF0000EA9EF04F013C069
:1008600036F014C037F020EE07F002D842EF04F063
:100870000500FA6EDE50FD6EDE50FE6EF850FF6E23
:10088000FA501200386E396A3950000AD8B44BEF6A
:1008900004F028EF04F03850010AD8B428EF04F02F
:1008A000030AD8B420EF04F0010AD8B424EF04F00E
:1008B000070AD8B428EF04F028EF04F082EC09F01E
:1008C0000009D8B466EF04F068EF04F0A8EF04F074
:1008D0002450030B0009D8B470EF04F072EF04F059
:1008E0007EEF04F0010E386E2450030B396E385041
:1008F000395E24503918FC0B3918246E60007BF0E7
:10090000D9FF60007FF0DAFFDF503C6E1E4A1F2ADD
:100910002006D8A0210620502110D8A492EF04F080
:1009200094EF04F09CEF04F063EC06F0386E38505E
:100930003A6E3B6AA0EF04F0000E3B6E030E3A6E77
:100940003AC03DF03C5005EC0AF03D50A9EF04F0F0
:10095000030E1200CEEC09F0BC88520E466E2B0E30
:10096000456E000EE82EFED7452EFCD7462EFAD750
:1009700000D0470E406E000E416E000E436E060E14
:10098000426E500E7CEC07F0150E456EC60EE82E3A
:10099000FED7452EFCD700D0470E406E000E416EAC
:1009A000000E436E020E426E500E7CEC07F0290ED4
:1009B000406E000E416E000E436E040E426E500EED
:1009C00020EC08F0150E456EC60EE82EFED7452E1B
:1009D000FCD700D0BC98040E2918D8A4F2EF04F07C
:1009E000F4EF04F0F7EF04F0BB90B9EF04F0BB8034
:1009F000B9EF04F0FEEF3FF024881DEF05F038EC6E
:100A00000AF0080E4AEF05F038EC0AF0070E4AEF3C
:100A100005F020280AEC0AF0040E4AEF05F0070E54
:100A20002218D8B416EF05F018EF05F01AEF05F00C
:100A30003BEC0AF0000E4AEF05F00DC036F00EC098
:100A400037F002D82EEF05F00500FA6E0150FD6E6A
:100A50000250FE6EF850FF6EFA501200386E396A7E
:100A60003950000AD8B437EF05F00FEF05F03850D1
:100A7000010AD8B40FEF05F0030AD8B404EF05F06B
:100A8000010AD8B4FFEF04F0070AD8B409EF05F063
:100A90000FEF05F0120098EC09F00009D8A453EF0D
:100AA00005F055EF05F058EF05F0040E96EF05F050
:100AB0002450030B0009D8B460EF05F062EF05F095
:100AC0006EEF05F0010E3A6E2450030B3B6E3A5068
:100AD0003B5E24503B18FC0B3B18246E2006D8A02C
:100AE000210620502110D8B478EF05F07AEF05F0F8
:100AF00087EF05F035EC0AF060007BF0D9FF60006D
:100B00007FF0DAFFDF6E1E4A1F2A55EF05F0FCEC7E
:100B100004F03C6E35EC0AF060007BF0D9FF600019
:100B20007FF0DAFFDF6E1E4A1F2A3C5012002D6E46
:100B3000BC84010E2E6E24B6A0EF05F0A2EF05F0E6
:100B4000DFEF05F02DC01DF024942486FC0E241642
:100B5000000E236E0F0E226E010E1C6EF40E1B6E25
:100B600024889A0E016E140E026E000E0D6E000E99
:100B70000E6E9A0E036E140E046E000E0F6E000EB3
:100B8000106E9A0E056E140E066E000E116E000E9B
:100B9000126E9A0E076E140E086E000E136E000E83
:100BA000146E960E096E140E0A6E000E156E000E6F
:100BB000166EFAEC09F01CEC09F0000E2E6E2E50A9
:100BC0001200000EBA6E000EBB6E000EBC6EC26844
:100BD000F80EC36ECB0EC46E000E3A01606F000EAD
:100BE000506F000E406F000E816F000E516F000EAF
:100BF000416F000E616F000E426F060E526F080EBD
:100C0000626F436953696369446954696469080E92
:100C1000846F5B51CF0B20095B6F5A51CF0B2009BA
:100C20005A6F5B51FC0B02095B6F5A51FC0B0209B6
:100C30005A6F090EE56F230E096F240E0A6F0A0E14
:100C4000E66F1200316E2D502E10D8B42AEF06F048
:100C50002CEF06F04AEF06F03150020D010EF3249E
:100C6000D96E000EF420DA6E6000B7F0DEFF60008F
:100C7000BBF0DDFF3150020D0D0EF324D96E000ED6
:100C8000F420DA6E6000BFF0DEFF6000C3F0DDFF2D
:100C900062EF06F03150020D010EF324D96E000E02
:100CA000F420DA6E9A0EDE6E140EDD6E3150020DF7
:100CB0000D0EF324D96E000EF420DA6E000EDE6EF7
:100CC000000EDD6E1200248876EF06F038EC0AF094
:100CD000070E9FEF06F020280AEC0AF0030E9FEFA4
:100CE00006F03BEC0AF00A0E9FEF06F00DC036F05E
:100CF0000EC037F002D887EF06F00500FA6E0150FB
:100D0000FD6E0250FE6EF850FF6EFA501200386E03
:100D1000396A3950000AD8B490EF06F071EF06F046
:100D20003850010AD8B471EF06F0030AD8B466EF60
:100D300006F0060AD8B46BEF06F071EF06F0120069
:100D4000FAEC09F0020E236EB2EF06F0D7EC09F0D0
:100D5000D9EF06F049EC0AF0D9EF06F0E6EC09F01D
:100D6000D9EF06F00FC036F010C037F020EE03F0D8
:100D700002D8C5EF06F00500FA6EDE50FD6EDE50BB
:100D8000FE6EF850FF6EFA501200386E396A395014
:100D9000000AD8B4CEEF06F0AEEF06F03850020AE3
:100DA000D8B4A6EF06F0010AD8B4AAEF06F0AEEF69
:100DB00006F01200FC0E2416020E236E2494ECEFB3
:100DC00006F0D7EC09F013EF07F049EC0AF013EF47
:100DD00007F00F0E13EF07F011C036F012C037F016
:100DE00020EE05F002D8FFEF06F00500FA6EDE50A7
:100DF000FD6EDE50FE6EF850FF6EFA501200386E37
:100E0000396A3950000AD8B408EF07F0E9EF06F064
:100E10003850020AD8B4E1EF06F0010AD8B4E5EF81
:100E200006F0E9EF06F012003901A7A31AEF07F068
:100E30001CEF07F01EEF07F04AEF07F0A7A123EF22
:100E400007F025EF07F027EF07F04AEF07F03D0125
:100E500063A52DEF07F02FEF07F031EF07F04AEF12
:100E600007F063AF36EF07F038EF07F03AEF07F01F
:100E70004AEF07F060A93FEF07F041EF07F043EFBB
:100E800007F04AEF07F060AB48EF07F04AEF07F0D2
:100E900014EF07F01200A9EC07F02450030B00092F
:100EA000D8B455EF07F057EF07F063EF07F08DEC7C
:100EB00009F00009D8B45FEF07F061EF07F063EFC6
:100EC00007F0100E226E2250020D010EF324F66E72
:100ED000080EF420F76E02D87AEF07F00500FA6EDC
:100EE0000900F550FD6E0900F550FE6EF850FF6EDA
:100EF000FA501200226E1200446E445097EC05F036
:100F00000009D8B486EF07F088EF07F07DEF07F00F
:100F100040C02DF041C02EF042C02FF043C030F051
:100F20003EEC09F0000E326E000E336E000E346E91
:100F3000000E356E6AEC09F00FEC0AF0E1EC08F0F7
:100F4000E806D8B4A6EF07F0A8EF07F09EEF07F089
:100F50001200B9EC09F00009D8B4B1EF07F0B3EF13
:100F600007F0B7EF07F044EC0AF0D2EF07F0A3EC7C
:100F700009F00009D8B4BFEF07F0C1EF07F0C6EFE2
:100F800007F03EEC0AF02494D2EF07F0AEEC09F043
:100F90000009D8B4CEEF07F0D0EF07F0D2EF07F09A
:100FA00041EC0AF012003E6E010E3F6E24B4DBEFFE
:100FB00007F0DDEF07F0F8EF07F02484000E3F6E36
:100FC00020500AEC0AF03E50D8B4E9EF07F0EBEFFE
:100FD00007F0F1EF07F0040E226ECCEC08F0F5EF0D
:100FE00007F0030E226EC4EC09F0BC942DEC09F05E
:100FF0003F50120020EE02F03650D9263750DA2248
:101000006F0078FF2DF06F0074FF2EF06000DBF0B2
:10101000D9FF6000DFF0DAFF6F0078FF2FF06F007C
:1010200074FF30F03EEC09F0000E326E000E336EAD
:10103000000E346E000E356E76EC09F0020E1200D2
:10104000446E445097EC05F00009D8B42AEF08F03C
:101050002CEF08F021EF08F040C02DF041C02EF039
:1010600042C02FF043C030F03EEC09F013EC0AF020
:10107000E1EC08F0E806D8B440EF08F042EF08F0E1
:1010800038EF08F01200460EF66E140EF76E000EE2
:10109000F86E00EE47F010EE06F009006F00D7FF83
:1010A000EEFFE550E150F9E100EE01F02C0EEE6AA2
:1010B000E806FDE1000EF86E0001AAEF04F036C06C
:1010C0002DF037C02EF0000E306E010E2F6E3EEC6C
:1010D00009F0000E326E000E336E000E346E000EFC
:1010E000356E76EC09F0040E120036C02DF037C0D4
:1010F0002EF0000E306E020E2F6E3EEC09F0000E48
:10110000326E000E336E000E346E000E356E76ECCD
:1011100009F0020E120036C02DF037C02EF0000E7E
:10112000306E010E2F6E3EEC09F0000E326E000E96
:10113000336E000E346E000E356E76EC09F0020E42
:10114000120036C02DF037C02EF0000E306E020EA9
:101150002F6E3EEC09F0000E326E000E336E000E64
:10116000346E000E356E76EC09F0040E1200BC846D
:10117000240E3D015D6F010E5E6F5E8F5E91100E5D
:101180005F6F030E656F000E636F000E646F000EDD
:10119000606F5669BC9412002450FC0B0209246E47
:1011A00020042110D8A4D7EF08F0D9EF08F0DBEF26
:1011B00008F0FCEC04F0D8801D3405EC0AF0040EB5
:1011C0001200010E2D6E24B4E8EF08F0EAEF08F0EB
:1011D000F4EF08F024961D68FAEC09F04FEC09F0E2
:1011E000F4EC09F023C02DF02D5012002CEC0AF085
:1011F00029EC0AF00009D8B400EF09F002EF09F079
:1012000008EF09F0000E0AEC0AF0000E05EC0AF0F7
:10121000000E1200000E3901C06F000EC16F000EEB
:10122000C26F000EC36F000EC46F000EC56F000EBC
:10123000C66F000EC76F12003D015DBF22EF09F0BF
:1012400024EF09F02CEF09F0000E636F000E646FBD
:10125000000E606F56695D8F120035EF09F014ECD7
:1012600007F0BC844BEC07F0BC9424B43AEF09F0CF
:101270003CEF09F02FEF09F000F0120024A843EF33
:1012800009F045EF09F04EEF09F02DC01EF02EC019
:101290001FF02FC020F030C021F024981200390137
:1012A00097959797979197933D0164916495649F63
:1012B000649D64936093609560911200600E3901A3
:1012C000D96F000EDB6F000EDD6F080EDF6F000EB2
:1012D000DE6F120032C02DF033C02EF034C02FF07C
:1012E00035C030F0020E22EC06F0120032C02DF0B4
:1012F00033C02EF034C02FF035C030F0000E22EC99
:1013000006F012003D0162BB88EF09F08BEF09F097
:10131000010E8CEF09F0000E12003D015EBB93EF51
:1013200009F096EF09F0010E97EF09F0000E120098
:101330003D0162B19EEF09F0A1EF09F0010EA2EFAD
:1013400009F0000E12003D0163B5A9EF09F0ACEF02
:1013500009F0010EADEF09F0000E12003D0160B979
:10136000B4EF09F0B7EF09F0010EB8EF09F0000E85
:1013700012003D0163BFBFEF09F0C2EF09F0010E9B
:10138000C3EF09F0000E12002450FC0B0209246E7A
:101390001D501D2405EC0AF0030E12000AEC09F0A2
:1013A000B7EC08F0E1EC05F05EEC09F0120020501B
:1013B0000AEC0AF03D016483CCEC08F0120000EC6A
:1013C0000AF02494020E236E0F0E120000EC0AF0B5
:1013D0002494000E236E0F0E12002FEC0AF02CEC5A
:1013E0000AF026EC0AF012003D015D9F000E636FCB
:1013F00062851200000E3D01636F0F0E6017120030
:101400003D015D9F62855D8F12002D6E6000B7F01B
:1014100055FD12002D6E6000B7F056FD1200000E53
:10142000D3EC07F01200010ED3EC07F012002FEC02
:101430000AF0090E120032EC0AF0040E120032EC2F
:101440000AF0030E120000000A0B0C0D24940F0E7C
:1014500012003D01565112003D015D9B12003D01FD
:101460005E8D12003D015E9D12003D01545112003F
:101470003D015D8D12003D015D9D12003D016395B2
:1014800012003D01609912003D01639F1200010EA0
:0E1490001200020E1200050E1200010E1200D4
:047FFC0043EF08F057
:020000040020DA
:10000000FF0FFF0FFF0FFF0FFF0FFF0FFF0FFF0F80
:020000040030CA
:0A0000008CFFF7FF9FFFFFFFFFFFDB
:00000001FF
