:04000000FEEF3FF0E0
:10080000007013FC1008132808EA09100C4C095852
:10081000130E140A145011B013B8134A13A8133C42
:1008200013FE0C8A0C2E13004DEC09F00009D8B40D
:100830001CEF04F01EEF04F05AEF04F02BEF04F06D
:10084000ACEC09F0A5EF04F007EC0AF0A5EF04F01A
:10085000000EA5EF04F013C036F014C037F020EE00
:1008600007F002D83EEF04F00500FA6EDE50FD6E90
:10087000DE50FE6EF850FF6EFA501200386E396A84
:100880003950000AD8B447EF04F028EF04F038508C
:10089000010AD8B428EF04F0030AD8B420EF04F01A
:1008A000010AD8B424EF04F0070AD8B428EF04F002
:1008B00028EF04F042EC09F00009D8B462EF04F02C
:1008C00064EF04F0A4EF04F02450030B0009D8B443
:1008D0006CEF04F06EEF04F07AEF04F0010E386E66
:1008E0002450030B396E3850395E24503918FC0BF4
:1008F0003918246E60007BF0D9FF60007FF0DAFFCA
:10090000DF503C6E1E4A1F2A2006D8A02106205028
:100910002110D8A48EEF04F090EF04F098EF04F0CB
:1009200008EC06F0386E38503A6E3B6A9CEF04F0E3
:10093000000E3B6E030E3A6E3AC03DF03C50BDECEB
:1009400009F03D50A5EF04F0030E12002488C7EF14
:1009500004F0F6EC09F0080EF4EF04F0F6EC09F000
:10096000070EF4EF04F02028C2EC09F0040EF4EFB7
:1009700004F0070E2218D8B4C0EF04F0C2EF04F060
:10098000C4EF04F0F9EC09F00F0EF4EF04F00DC021
:1009900036F00EC037F002D8D8EF04F00500FA6E3A
:1009A0000150FD6E0250FE6EF850FF6EFA501200BC
:1009B000386E396A3950000AD8B4E1EF04F0B9EF63
:1009C00004F03850010AD8B4B9EF04F0030AD8B4DF
:1009D000AEEF04F0010AD8B4A9EF04F0070AD8B4C6
:1009E000B3EF04F0B9EF04F0120058EC09F000097D
:1009F000D8A4FDEF04F0FFEF04F002EF05F0040EC1
:100A000040EF05F02450030B0009D8B40AEF05F0BD
:100A10000CEF05F018EF05F0010E3A6E2450030BB1
:100A20003B6E3A503B5E24503B18FC0B3B18246E47
:100A30002006D8A0210620502110D8B422EF05F0BE
:100A400024EF05F031EF05F0F3EC09F060007BF0E6
:100A5000D9FF60007FF0DAFFDF6E1E4A1F2AFFEF2A
:100A600004F0A6EC04F03C6EF3EC09F060007BF0BF
:100A7000D9FF60007FF0DAFFDF6E1E4A1F2A3C506C
:100A800012002D6E010E2E6E24B649EF05F04BEFCD
:100A900005F086EF05F02DC01DF024942486FC0E91
:100AA00024160F0E226E010E1C6EF40E1B6E24888F
:100AB000160E016E140E026E000E0D6E000E0E6EFE
:100AC000160E036E140E046E000E0F6E000E106EE6
:100AD000160E056E140E066E000E116E000E126ECE
:100AE000160E076E140E086E000E136E000E146EB6
:100AF000120E096E140E0A6E000E156E000E166EA2
:100B0000E0EC09F0DFEC08F0000E2E6E2E50120023
:100B1000316E2D502E10D8B490EF05F092EF05F005
:100B2000B0EF05F03150020D010EF324D96E000E26
:100B3000F420DA6E6000B7F0DEFF6000BBF0DDFF8E
:100B40003150020D0D0EF324D96E000EF420DA6E32
:100B50006000BFF0DEFF6000C3F0DDFFC8EF05F00E
:100B60003150020D010EF324D96E000EF420DA6E1E
:100B7000160EDE6E140EDD6E3150020D0D0EF324D6
:100B8000D96E000EF420DA6E000EDE6E000EDD6E01
:100B900012008EEC09F0BC88520E466E2B0E456E8C
:100BA000000EE82EFED7452EFCD7462EFAD700D0F1
:100BB000470E406E000E416E000E436E020E426EF6
:100BC000500E45EC07F0290E406E000E416E000EEF
:100BD000436E040E426E500EE7EC07F0150E456EA4
:100BE000C60EE82EFED7452EFCD700D0BC98040ECA
:100BF0002918D8A4FEEF05F000EF06F003EF06F089
:100C0000BB90D8EF05F0BB80D8EF05F0FEEF3FF0CA
:100C100024881BEF06F0F6EC09F0070E44EF06F00F
:100C20002028C2EC09F0030E44EF06F0F9EC09F0BD
:100C30000A0E44EF06F00DC036F00EC037F002D8B1
:100C40002CEF06F00500FA6E0150FD6E0250FE6EAC
:100C5000F850FF6EFA501200386E396A3950000AA7
:100C6000D8B435EF06F016EF06F03850010AD8B4C4
:100C700016EF06F0030AD8B40BEF06F0060AD8B454
:100C800010EF06F016EF06F01200E0EC09F0020E8D
:100C9000236E57EF06F0ACEC09F07EEF06F007ECA0
:100CA0000AF07EEF06F09EEC09F07EEF06F00FC032
:100CB00036F010C037F020EE03F002D86AEF06F0ED
:100CC0000500FA6EDE50FD6EDE50FE6EF850FF6ECF
:100CD000FA501200386E396A3950000AD8B473EFEE
:100CE00006F053EF06F03850020AD8B44BEF06F086
:100CF000010AD8B44FEF06F053EF06F01200FC0ED5
:100D00002416020E236E24948DEF06F005EC0AF0F3
:100D1000B4EF06F00F0EB4EF06F011C036F012C0BB
:100D200037F020EE05F002D8A0EF06F00500FA6ECD
:100D3000DE50FD6EDE50FE6EF850FF6EFA5012006F
:100D4000386E396A3950000AD8B4A9EF06F08AEF34
:100D500006F03850020AD8B486EF06F0010AD8B47B
:100D600086EF06F08AEF06F01200000EBA6E000E53
:100D7000BB6E000EBC6EC268F80EC36EC90EC46EA8
:100D8000000E3A01606F000E506F000E406F000EB3
:100D9000816F000E516F000E416F000E616F000EEB
:100DA000426F060E526F080E626F436953696369A2
:100DB000446954696469080E846F090EE56F230E57
:100DC000096F240E0A6F0A0EE66F120072EC07F02C
:100DD0002450030B0009D8B4F0EF06F0F2EF06F050
:100DE000FEEF06F04DEC09F00009D8B4FAEF06F07A
:100DF000FCEF06F0FEEF06F0100E226E2250020D00
:100E0000010EF324F66E080EF420F76E02D815EFEB
:100E100007F00500FA6E0900F550FD6E0900F55067
:100E2000FE6EF850FF6EFA501200226E1200390169
:100E3000A7A31DEF07F01FEF07F021EF07F044EF26
:100E400007F0A7A126EF07F028EF07F02AEF07F039
:100E500044EF07F03D0163A530EF07F032EF07F0F4
:100E600034EF07F044EF07F063AF39EF07F03BEFE3
:100E700007F03DEF07F044EF07F060A942EF07F0FD
:100E800044EF07F017EF07F01200446E445041ECB6
:100E900005F00009D8B44FEF07F051EF07F046EF27
:100EA00007F040C02DF041C02EF042C02FF043C0EB
:100EB00030F0F0EC08F0000E326E000E336E000ED3
:100EC000346E000E356E2AEC09F0CCEC09F093EC90
:100ED00008F0E806D8B46FEF07F071EF07F067EF9E
:100EE00007F0120079EC09F00009D8B47AEF07F0A6
:100EF0007CEF07F080EF07F002EC0AF09AEF07F0C2
:100F000063EC09F00009D8B488EF07F08AEF07F026
:100F10008EEF07F0FCEC09F09AEF07F06EEC09F0A9
:100F20000009D8B496EF07F098EF07F09AEF07F0B2
:100F3000FFEC09F012003E6E010E3F6E24B4A3EFE9
:100F400007F0A5EF07F0BFEF07F02484000E3F6E17
:100F50002050C2EC09F03E50D8B4B1EF07F0B3EF27
:100F600007F0B9EF07F0040E226E7EEC08F0BDEF3B
:100F700007F0030E226E84EC09F010EC09F03F50EC
:100F8000120020EE02F03650D9263750DA226F00D8
:100F900078FF2DF06F0074FF2EF06000DBF0D9FFBA
:100FA0006000DFF0DAFF6F0078FF2FF06F0074FF52
:100FB00030F0F0EC08F0000E326E000E336E000ED2
:100FC000346E000E356E36EC09F0020E1200446EDF
:100FD000445041EC05F00009D8B4F1EF07F0F3EF0D
:100FE00007F0E8EF07F040C02DF041C02EF042C0FE
:100FF0002FF043C030F0F0EC08F0D0EC09F093ECA7
:1010000008F0E806D8B407EF08F009EF08F0FFEFA2
:1010100007F01200C80EF66E130EF76E000EF86E93
:1010200000EE47F010EE06F009006F00D7FFEEFF6C
:10103000E550E150F9E100EE01F02C0EEE6AE80611
:10104000FDE1000EF86E0001C9EF05F036C02DF08D
:1010500037C02EF0000E306E010E2F6EF0EC08F04F
:10106000000E326E000E336E000E346E000E356EC2
:1010700036EC09F0040E120036C02DF037C02EF009
:10108000000E306E020E2F6EF0EC08F0000E326E85
:10109000000E336E000E346E000E356E36EC09F025
:1010A000020E120036C02DF037C02EF0000E306E4A
:1010B000010E2F6EF0EC08F0000E326E000E336E53
:1010C000000E346E000E356E36EC09F0020E120082
:1010D00036C02DF037C02EF0000E306E020E2F6E8F
:1010E000F0EC08F0000E326E000E336E000E346E1F
:1010F000000E356E36EC09F0040E12002450FC0B85
:101100000209246E20042110D8A489EF08F08BEF87
:1011100008F08DEF08F0A6EC04F0D8801D34BDEC8B
:1011200009F0040E1200010E2D6E24B49AEF08F09F
:101130009CEF08F0A6EF08F024961D68E0EC09F09B
:1011400001EC09F0B2EC09F023C02DF02D50120093
:10115000EAEC09F0E7EC09F00009D8B4B2EF08F0C6
:10116000B4EF08F0BAEF08F0000EC2EC09F0000E80
:10117000BDEC09F0000E1200000E3901C06F000E28
:10118000C16F000EC26F000EC36F000EC46F000E61
:10119000C56F000EC66F000EC76F1200240E3D0112
:1011A0005D6F800E5E6F100E5F6F030E656F000E39
:1011B000636F000E646F000E606F566912003D0190
:1011C0005DBFE5EF08F0E7EF08F0EFEF08F0000E85
:1011D000636F000E646F000E606F56695D8F1200C2
:1011E00024A8F5EF08F0F7EF08F000EF09F02DC0A4
:1011F0001EF02EC01FF02FC020F030C021F0249828
:101200001200390197959797979197933D016491B3
:101210006495649F649D64936093609560911200EF
:1012200016EF09F017EC07F0E6EC06F024B41BEF1C
:1012300009F01DEF09F012EF09F01200600E3901FC
:10124000D96F000EDB6F000EDD6F080EDF6F000E32
:10125000DE6F120032C02DF033C02EF034C02FF0FC
:1012600035C030F0020E88EC05F0120032C02DF0CF
:1012700033C02EF034C02FF035C030F0000E88ECB3
:1012800005F012003D0162BB48EF09F04BEF09F099
:10129000010E4CEF09F0000E12003D015EBB53EF52
:1012A00009F056EF09F0010E57EF09F0000E120099
:1012B0003D0162B15EEF09F061EF09F0010E62EFEE
:1012C00009F0000E12003D0163B569EF09F06CEF03
:1012D00009F0010E6DEF09F0000E12003D0160B93A
:1012E00074EF09F077EF09F0010E78EF09F0000EC6
:1012F00012003D0163BF7FEF09F082EF09F0010E9C
:1013000083EF09F0000E12002450FC0B0209246E3A
:101310001D501D24BDEC09F0030E1200BCEC08F0BA
:10132000CEEC08F0B5EC06F01EEC09F01200C7ECAC
:1013300009F02494020E236E0F0E1200C7EC09F080
:101340002494000E236E0F0E1200EDEC09F0EAEC6F
:1013500009F0B8EC09F012002050C2EC09F07EEC64
:1013600008F012003D015D9F000E636F6285120060
:101370002494000E236E0F0E12002D6E6000B7F045
:1013800055FD12002D6E6000B7F056FD12003D01B4
:101390005D9F62855D8F1200000E9BEC07F01200CE
:1013A000010E9BEC07F01200EDEC09F0090E1200A3
:1013B000F0EC09F0040E1200F0EC09F0030E12003C
:1013C000000E3D01636F120000000A0B0C0D3D0181
:1013D000565112003D015D9B12003D015E8D1200D1
:1013E0003D015E9D12003D01545112003D015D8D95
:1013F00012003D015D9D12003D01639512003D010B
:10140000609912003D01639F1200010E1200020E4E
:0A1410001200050E1200010E12007A
:047FFC000AEF08F090
:020000040020DA
:10000000FF0FFF0FFF0FFF0FFF0FFF0FFF0FFF0F80
:020000040030CA
:0A0000008CFFF7FF9FFFFFFFFFFFDB
:00000001FF
