:04000000FEEF3FF0E0
:1008000000961322112E1328088E0A360CF0097E4A
:1008100013341430147611D613DE137013CE136212
:1008200013240DB00C54130060EC09F00009D8B487
:100830001CEF04F01EEF04F05AEF04F02BEF04F06D
:10084000BFEC09F0A5EF04F01AEC0AF0A5EF04F0F4
:10085000000EA5EF04F013C036F014C037F020EE00
:1008600007F002D83EEF04F00500FA6EDE50FD6E90
:10087000DE50FE6EF850FF6EFA501200386E396A84
:100880003950000AD8B447EF04F028EF04F038508C
:10089000010AD8B428EF04F0030AD8B420EF04F01A
:1008A000010AD8B424EF04F0070AD8B428EF04F002
:1008B00028EF04F055EC09F00009D8B462EF04F019
:1008C00064EF04F0A4EF04F02450030B0009D8B443
:1008D0006CEF04F06EEF04F07AEF04F0010E386E66
:1008E0002450030B396E3850395E24503918FC0BF4
:1008F0003918246E60007BF0D9FF60007FF0DAFFCA
:10090000DF503C6E1E4A1F2A2006D8A02106205028
:100910002110D8A48EEF04F090EF04F098EF04F0CB
:100920001BEC06F0386E38503A6E3B6A9CEF04F0D0
:10093000000E3B6E030E3A6E3AC03DF03C50D0ECD8
:1009400009F03D50A5EF04F0030E1200A1EC09F0F0
:10095000BC88520E466E2B0E456E000EE82EFED75A
:10096000452EFCD7462EFAD700D0470E406E000E1B
:10097000416E000E436E060E426E500E58EC07F0AC
:10098000150E456EC60EE82EFED7452EFCD700D0BC
:10099000470E406E000E416E000E436E020E426E18
:1009A000500E58EC07F0290E406E000E416E000EFE
:1009B000436E040E426E500EFAEC07F0150E456EB3
:1009C000C60EE82EFED7452EFCD700D0BC980A0EE6
:1009D0002918D8A4EEEF04F0F0EF04F0F3EF04F0E0
:1009E000BB90B5EF04F0BB80B5EF04F0FEEF3FF035
:1009F000248819EF05F009EC0AF0080E46EF05F01F
:100A000009EC0AF0070E46EF05F02028D5EC09F0B6
:100A1000040E46EF05F0070E2218D8B412EF05F0C9
:100A200014EF05F016EF05F00CEC0AF00F0E46EF90
:100A300005F00DC036F00EC037F002D82AEF05F0F1
:100A40000500FA6E0150FD6E0250FE6EF850FF6E0A
:100A5000FA501200386E396A3950000AD8B433EFB0
:100A600005F00BEF05F03850010AD8B40BEF05F094
:100A7000030AD8B400EF05F0010AD8B4FBEF04F084
:100A8000070AD8B405EF05F00BEF05F012006BEC88
:100A900009F00009D8A44FEF05F051EF05F054EF2D
:100AA00005F0040E92EF05F02450030B0009D8B4B2
:100AB0005CEF05F05EEF05F06AEF05F0010E3A6EAF
:100AC0002450030B3B6E3A503B5E24503B18FC0B0A
:100AD0003B18246E2006D8A0210620502110D8B43F
:100AE00074EF05F076EF05F083EF05F006EC0AF001
:100AF00060007BF0D9FF60007FF0DAFFDF6E1E4AF6
:100B00001F2A51EF05F0F8EC04F03C6E06EC0AF0F9
:100B100060007BF0D9FF60007FF0DAFFDF6E1E4AD5
:100B20001F2A3C5012002D6E010E2E6E24B69BEF34
:100B300005F09DEF05F0D8EF05F02DC01DF02494D1
:100B40002486FC0E24160F0E226E010E1C6EF40E6F
:100B50001B6E24883C0E016E140E026E000E0D6E8C
:100B6000000E0E6E3C0E036E140E046E000E0F6E21
:100B7000000E106E3C0E056E140E066E000E116E09
:100B8000000E126E3C0E076E140E086E000E136EF1
:100B9000000E146E380E096E140E0A6E000E156EDD
:100BA000000E166EF3EC09F0F2EC08F0000E2E6E5B
:100BB0002E501200316E2D502E10D8B4E2EF05F0F9
:100BC000E4EF05F002EF06F03150020D010EF324C0
:100BD000D96E000EF420DA6E6000B7F0DEFF600020
:100BE000BBF0DDFF3150020D0D0EF324D96E000E67
:100BF000F420DA6E6000BFF0DEFF6000C3F0DDFFBE
:100C00001AEF06F03150020D010EF324D96E000EDA
:100C1000F420DA6E3C0EDE6E140EDD6E3150020DE5
:100C20000D0EF324D96E000EF420DA6E000EDE6E87
:100C3000000EDD6E120024882EEF06F009EC0AF09B
:100C4000070E57EF06F02028D5EC09F0030E57EFFA
:100C500006F00CEC0AF00A0E57EF06F00DC036F065
:100C60000EC037F002D83FEF06F00500FA6E0150D3
:100C7000FD6E0250FE6EF850FF6EFA501200386E94
:100C8000396A3950000AD8B448EF06F029EF06F067
:100C90003850010AD8B429EF06F0030AD8B41EEF81
:100CA00006F0060AD8B423EF06F029EF06F012008A
:100CB000F3EC09F0020E236E6AEF06F0BFEC09F0C8
:100CC00091EF06F01AEC0AF091EF06F0B1EC09F0A2
:100CD00091EF06F00FC036F010C037F020EE03F0B1
:100CE00002D87DEF06F00500FA6EDE50FD6EDE5094
:100CF000FE6EF850FF6EFA501200386E396A3950A5
:100D0000000AD8B486EF06F066EF06F03850020A03
:100D1000D8B45EEF06F0010AD8B462EF06F066EFD1
:100D200006F01200FC0E2416020E236E2494A0EF8F
:100D300006F018EC0AF0C7EF06F00F0EC7EF06F04A
:100D400011C036F012C037F020EE05F002D8B3EF34
:100D500006F00500FA6EDE50FD6EDE50FE6EF850B5
:100D6000FF6EFA501200386E396A3950000AD8B452
:100D7000BCEF06F09DEF06F03850020AD8B499EFA8
:100D800006F0010AD8B499EF06F09DEF06F01200C4
:100D9000000EBA6E000EBB6E000EBC6EC268F80E7E
:100DA000C36EC90EC46E000E3A01606F000E506F24
:100DB000000E406F000E816F000E516F000E416FEC
:100DC000000E616F000E426F060E526F080E626FCA
:100DD000436953696369446954696469080E846F9F
:100DE000090EE56F230E096F240E0A6F0A0EE66FD7
:100DF000120085EC07F02450030B0009D8B403EF70
:100E000007F005EF07F011EF07F060EC09F00009BB
:100E1000D8B40DEF07F00FEF07F011EF07F0100E49
:100E2000226E2250020D010EF324F66E080EF420FD
:100E3000F76E02D828EF07F00500FA6E0900F550AA
:100E4000FD6E0900F550FE6EF850FF6EFA5012006C
:100E5000226E12003901A7A330EF07F032EF07F03E
:100E600034EF07F057EF07F0A7A139EF07F03BEF9A
:100E700007F03DEF07F057EF07F03D0163A543EFA3
:100E800007F045EF07F047EF07F057EF07F063AFC4
:100E90004CEF07F04EEF07F050EF07F057EF07F079
:100EA00060A955EF07F057EF07F02AEF07F012009F
:100EB000446E445093EC05F00009D8B462EF07F09B
:100EC00064EF07F059EF07F040C02DF041C02EF05D
:100ED00042C02FF043C030F003EC09F0000E326E38
:100EE000000E336E000E346E000E356E3DEC09F0D0
:100EF000DFEC09F0A6EC08F0E806D8B482EF07F0C2
:100F000084EF07F07AEF07F012008CEC09F000098B
:100F1000D8B48DEF07F08FEF07F093EF07F015ECE3
:100F20000AF0ADEF07F076EC09F00009D8B49BEFBA
:100F300007F09DEF07F0A1EF07F00FEC0AF0ADEF1F
:100F400007F081EC09F00009D8B4A9EF07F0ABEF86
:100F500007F0ADEF07F012EC0AF012003E6E010E42
:100F60003F6E24B4B6EF07F0B8EF07F0D2EF07F00A
:100F70002484000E3F6E2050D5EC09F03E50D8B4CA
:100F8000C4EF07F0C6EF07F0CCEF07F0040E226EB7
:100F900091EC08F0D0EF07F0030E226E97EC09F009
:100FA00023EC09F03F50120020EE02F03650D92613
:100FB0003750DA226F0078FF2DF06F0074FF2EF0AB
:100FC0006000DBF0D9FF6000DFF0DAFF6F0078FF30
:100FD0002FF06F0074FF30F003EC09F0000E326E5A
:100FE000000E336E000E346E000E356E49EC09F0C3
:100FF000020E1200446E445093EC05F00009D8B480
:1010000004EF08F006EF08F0FBEF07F040C02DF00A
:1010100041C02EF042C02FF043C030F003EC09F085
:10102000E3EC09F0A6EC08F0E806D8B41AEF08F0F3
:101030001CEF08F012EF08F01200EE0EF66E130E21
:10104000F76E000EF86E00EE47F010EE06F00900A5
:101050006F00D7FFEEFFE550E150F9E100EE01F03F
:101060002C0EEE6AE806FDE1000EF86E0001A6EF18
:1010700004F036C02DF037C02EF0000E306E010E99
:101080002F6E03EC09F0000E326E000E336E000E70
:10109000346E000E356E49EC09F0040E120036C0B5
:1010A0002DF037C02EF0000E306E020E2F6E03ECC6
:1010B00009F0000E326E000E336E000E346E000E1C
:1010C000356E49EC09F0020E120036C02DF037C023
:1010D0002EF0000E306E010E2F6E03EC09F0000EA4
:1010E000326E000E336E000E346E000E356E49EC1B
:1010F00009F0020E120036C02DF037C02EF0000E9F
:10110000306E020E2F6E03EC09F0000E326E000EF0
:10111000336E000E346E000E356E49EC09F0040E8D
:1011200012002450FC0B0209246E20042110D8A4C4
:101130009CEF08F09EEF08F0A0EF08F0F8EC04F048
:10114000D8801D34D0EC09F0040E1200010E2D6E73
:1011500024B4ADEF08F0AFEF08F0B9EF08F0249633
:101160001D68F3EC09F014EC09F0C5EC09F023C09C
:101170002DF02D501200FDEC09F0FAEC09F00009F9
:10118000D8B4C5EF08F0C7EF08F0CDEF08F0000EB7
:10119000D5EC09F0000ED0EC09F0000E1200000EA4
:1011A0003901C06F000EC16F000EC26F000EC36F19
:1011B000000EC46F000EC56F000EC66F000EC76F25
:1011C0001200240E3D015D6F800E5E6F100E5F6F8A
:1011D000030E656F000E636F000E646F000E606F8C
:1011E000566912003D015DBFF8EF08F0FAEF08F014
:1011F00002EF09F0000E636F000E646F000E606F67
:1012000056695D8F120024A808EF09F00AEF09F073
:1012100013EF09F02DC01EF02EC01FF02FC020F0DC
:1012200030C021F024981200390197959797979133
:1012300097933D0164916495649F649D649360936A
:1012400060956091120029EF09F02AEC07F0F9ECA3
:1012500006F024B42EEF09F030EF09F025EF09F085
:101260001200600E3901D96F000EDB6F000EDD6FCA
:10127000080EDF6F000EDE6F120032C02DF033C09B
:101280002EF034C02FF035C030F0020EDAEC05F04D
:10129000120032C02DF033C02EF034C02FF035C014
:1012A00030F0000EDAEC05F012003D0162BB5BEF9E
:1012B00009F05EEF09F0010E5FEF09F0000E120079
:1012C0003D015EBB66EF09F069EF09F0010E6AEFC0
:1012D00009F0000E12003D0162B171EF09F074EFE8
:1012E00009F0010E75EF09F0000E12003D0163B523
:1012F0007CEF09F07FEF09F0010E80EF09F0000E9E
:1013000012003D0160B987EF09F08AEF09F0010E84
:101310008BEF09F0000E12003D0163BF92EF09F060
:1013200095EF09F0010E96EF09F0000E120024501F
:10133000FC0B0209246E1D501D24D0EC09F0030E95
:101340001200CFEC08F0E1EC08F0C8EC06F031EC4C
:1013500009F01200DAEC09F02494020E236E0F0E4D
:101360001200DAEC09F02494000E236E0F0E120026
:1013700000EC0AF0FDEC09F0CBEC09F01200205073
:10138000D5EC09F091EC08F012003D015D9F000ED4
:10139000636F628512002494000E236E0F0E1200FC
:1013A0002D6E6000B7F055FD12002D6E6000B7F095
:1013B00056FD12003D015D9F62855D8F1200000E9B
:1013C000AEEC07F01200010EAEEC07F0120000ECDC
:1013D0000AF0090E120003EC0AF0040E120003ECEE
:1013E0000AF0030E1200000E3D01636F12000000B0
:1013F0000A0B0C0D3D01565112003D015D9B120080
:101400003D015E8D12003D015E9D12003D01545173
:1014100012003D015D8D12003D015D9D12003D01F8
:10142000639512003D01609912003D01639F120017
:10143000010E1200020E1200050E1200010E120023
:047FFC001DEF08F07D
:020000040020DA
:10000000FF0FFF0FFF0FFF0FFF0FFF0FFF0FFF0F80
:020000040030CA
:0A0000008CFFF7FF9FFFFFFFFFFFDB
:00000001FF
