:04000000FEEF3FF0E0
:10080000001A139C10BA122808EA09920B4C09022C
:1008100013AA13A613F01052135A13E8124A13DA4C
:1008200012800C0C0CCC12001DEC09F00009D8B49D
:100830001CEF04F01EEF04F05AEF04F02BEF04F06D
:1008400081EC09F0A5EF04F0D5EC09F0A5EF04F078
:10085000000EA5EF04F013C038F014C039F020EEFC
:1008600007F002D83EEF04F00500FA6EDE50FD6E90
:10087000DE50FE6EF850FF6EFA5012003A6E3B6A80
:100880003B50000AD8B447EF04F028EF04F03A5088
:10089000010AD8B428EF04F0030AD8B420EF04F01A
:1008A000010AD8B424EF04F0070AD8B428EF04F002
:1008B00028EF04F012EC09F00009D8B462EF04F05C
:1008C00064EF04F0A4EF04F02450030B0009D8B443
:1008D0006CEF04F06EEF04F07AEF04F0010E3A6E64
:1008E0002450030B3B6E3A503B5E24503B18FC0BEC
:1008F0003B18246E60007BF0D9FF60007FF0DAFFC8
:10090000DF503E6E1E4A1F2A2006D8A02106205026
:100910002110D8A48EEF04F090EF04F098EF04F0CB
:10092000C9EC05F03A6E3A503C6E3D6A9CEF04F01B
:10093000000E3D6E030E3C6E3CC03FF03E5092EC0C
:1009400009F03F50A5EF04F0030E12002488C7EF12
:1009500004F0C4EC09F0080EF4EF04F0C4EC09F064
:10096000070EF4EF04F0202897EC09F0040EF4EFE2
:1009700004F0070E2218D8B4C0EF04F0C2EF04F060
:10098000C4EF04F0C7EC09F00F0EF4EF04F00DC053
:1009900038F00EC039F002D8D8EF04F00500FA6E36
:1009A0000150FD6E0250FE6EF850FF6EFA501200BC
:1009B0003A6E3B6A3B50000AD8B4E1EF04F0B9EF5D
:1009C00004F03A50010AD8B4B9EF04F0030AD8B4DD
:1009D000AEEF04F0010AD8B4A9EF04F0070AD8B4C6
:1009E000B3EF04F0B9EF04F0120028EC09F00009AD
:1009F000D8A4FDEF04F0FFEF04F002EF05F0040EC1
:100A000040EF05F02450030B0009D8B40AEF05F0BD
:100A10000CEF05F018EF05F0010E3C6E2450030BAF
:100A20003D6E3C503D5E24503D18FC0B3D18246E3D
:100A30002006D8A0210620502110D8B422EF05F0BE
:100A400024EF05F031EF05F0C1EC09F060007BF018
:100A5000D9FF60007FF0DAFFDF6E1E4A1F2AFFEF2A
:100A600004F0A6EC04F03E6EC1EC09F060007BF0EF
:100A7000D9FF60007FF0DAFFDF6E1E4A1F2A3E506A
:100A800012002F6E010E306E24B649EF05F04BEFC9
:100A900005F086EF05F02FC01DF024942486FC0E8F
:100AA00024160F0E226E010E1C6EF40E1B6E24888F
:100AB000B20E016E130E026E000E0D6E000E0E6E63
:100AC000B20E036E130E046E000E0F6E000E106E4B
:100AD000B20E056E130E066E000E116E000E126E33
:100AE000B20E076E130E086E000E136E000E146E1B
:100AF000AE0E096E130E0A6E000E156E000E166E07
:100B0000B1EC09F0AFEC08F0000E306E305012007E
:100B1000336E2F503010D8B490EF05F092EF05F0FF
:100B2000B0EF05F03350020D010EF324D96E000E24
:100B3000F420DA6E6000BFF0DEFF6000C3F0DDFF7E
:100B40003350020D0D0EF324D96E000EF420DA6E30
:100B50006000C7F0DEFF6000CBF0DDFFC8EF05F0FE
:100B60003350020D010EF324D96E000EF420DA6E1C
:100B7000B20EDE6E130EDD6E3350020D0D0EF32439
:100B8000D96E000EF420DA6E000EDE6E000EDD6E01
:100B900012002488DCEF05F0C4EC09F0070E05EF25
:100BA00006F0202897EC09F0030E05EF06F0C7ECDD
:100BB00009F00A0E05EF06F00DC038F00EC039F04E
:100BC00002D8EDEF05F00500FA6E0150FD6E0250FF
:100BD000FE6EF850FF6EFA5012003A6E3B6A3B50C0
:100BE000000AD8B4F6EF05F0D7EF05F03A50010A45
:100BF000D8B4D7EF05F0030AD8B4CCEF05F0060A55
:100C0000D8B4D1EF05F0D7EF05F01200B1EC09F040
:100C1000020E236E18EF06F081EC09F03FEF06F0AC
:100C2000D5EC09F03FEF06F06DEC09F03FEF06F070
:100C30000FC038F010C039F020EE03F002D82BEFCF
:100C400006F00500FA6EDE50FD6EDE50FE6EF850C6
:100C5000FF6EFA5012003A6E3B6A3B50000AD8B45D
:100C600034EF06F014EF06F03A50020AD8B40CEF55
:100C700006F0010AD8B410EF06F014EF06F01200E7
:100C8000FC0E2416020E236E24944EEF06F0D3ECD5
:100C900009F075EF06F00F0E75EF06F011C038F091
:100CA00012C039F020EE05F002D861EF06F0050021
:100CB000FA6EDE50FD6EDE50FE6EF850FF6EFA509A
:100CC00012003A6E3B6A3B50000AD8B46AEF06F055
:100CD0004BEF06F03A50020AD8B447EF06F0010A8B
:100CE000D8B447EF06F04BEF06F0120054EC09F0D1
:100CF000BC88520E486E2B0E476E000EE82EFED7B3
:100D0000472EFCD7482EFAD700D0490E426E000E6F
:100D1000436E000E456E050E446EA00E38EC07F0D3
:100D2000D00E476ECA0EE82EFED7472EFCD7BC98D1
:100D30002504D8A49EEF06F0A0EF06F0A3EF06F07E
:100D4000BB9085EF06F0BB8085EF06F0FEEF3FF02D
:100D5000000EBA6E000EBB6E000EBC6EC268F80EBE
:100D6000C36EC90EC46E000E3A01606F000E506F64
:100D7000000E406F000E816F000E516F000E416F2C
:100D8000000E616F000E426F060E526F080E626F0A
:100D9000436953696369446954696469080E846FDF
:100DA000090EE56F230E096F240E0A6F0A0EE66F17
:100DB000120065EC07F02450030B0009D8B4E3EFF0
:100DC00006F0E5EF06F0F1EF06F01DEC09F0000982
:100DD000D8B4EDEF06F0EFEF06F0F1EF06F0100EED
:100DE000226E2250020D010EF324F66E080EF4203E
:100DF000F76E02D808EF07F00500FA6E0900F5500B
:100E0000FD6E0900F550FE6EF850FF6EFA501200AC
:100E1000226E12003901A7A310EF07F012EF07F0BE
:100E200014EF07F037EF07F0A7A119EF07F01BEF5A
:100E300007F01DEF07F037EF07F03D0163A523EF43
:100E400007F025EF07F027EF07F037EF07F063AF64
:100E50002CEF07F02EEF07F030EF07F037EF07F039
:100E600060A935EF07F037EF07F00AEF07F012003F
:100E7000466E465041EC05F00009D8B442EF07F049
:100E800044EF07F039EF07F042C02FF043C030F0D5
:100E900044C031F045C032F0C0EC08F0000E346EB2
:100EA000000E356E000E366E000E376EFAEC08F04E
:100EB000A1EC09F063EC08F0E806D8B462EF07F0A3
:100EC00064EF07F05AEF07F0120049EC09F000094F
:100ED000D8B46DEF07F06FEF07F073EF07F0D0ECC9
:100EE00009F08DEF07F033EC09F00009D8B47BEF7F
:100EF00007F07DEF07F081EF07F0CAEC09F08DEF06
:100F000007F03EEC09F00009D8B489EF07F08BEF49
:100F100007F08DEF07F0CDEC09F01200406E010EE6
:100F2000416E24B496EF07F098EF07F0B2EF07F0A8
:100F30002484000E416E205097EC09F04050D8B444
:100F4000A4EF07F0A6EF07F0ACEF07F0040E226E57
:100F50004EEC08F0B0EF07F0030E226E5DEC09F0E6
:100F6000E0EC08F04150120020EE02F03850D92693
:100F70003950DA226F0078FF2FF06F0074FF30F0E5
:100F80006000E3F0D9FF6000E7F0DAFF6F0078FF60
:100F900031F06F0074FF32F0C0EC08F0000E346ED8
:100FA000000E356E000E366E000E376E06EC09F040
:100FB000020E1200F60EF66E120EF76E000EF86EAE
:100FC00000EE49F010EE0CF009006F00D7FFEEFFC5
:100FD000E550E150F9E100EE01F02E0EEE6AE80670
:100FE000FDE1000EF86E000176EF06F038C02FF03C
:100FF00039C030F0000E326E010E316EC0EC08F0D8
:10100000000E346E000E356E000E366E000E376E1A
:1010100006EC09F0040E120038C02FF039C030F091
:10102000000E326E020E316EC0EC08F0000E346E0F
:10103000000E356E000E366E000E376E06EC09F0AF
:10104000020E120038C02FF039C030F0000E326EA0
:10105000010E316EC0EC08F0000E346E000E356EDD
:10106000000E366E000E376E06EC09F0020E12000E
:1010700038C02FF039C030F0000E326E020E316EE3
:10108000C0EC08F0000E346E000E356E000E366EA9
:10109000000E376E06EC09F0040E12002450FC0B13
:1010A0000209246E20042110D8A459EF08F05BEF48
:1010B00008F05DEF08F0A6EC04F01D50010992EC79
:1010C00009F0040E1200010E2F6E24B46AEF08F02E
:1010D0006CEF08F076EF08F024961D68B1EC09F08B
:1010E000D1EC08F087EC09F023C02FF02F5012004C
:1010F000B8EC09F0B5EC09F00009D8B482EF08F0BB
:1011000084EF08F08AEF08F0000E97EC09F0000E6B
:1011100092EC09F0000E1200000E3901C06F000EB3
:10112000C16F000EC26F000EC36F000EC46F000EC1
:10113000C56F000EC66F000EC76F1200240E3D0172
:101140005D6F010E5E6F100E5F6F030E656F000E18
:10115000636F000E646F000E606F566912003D01F0
:101160005DBFB5EF08F0B7EF08F0BFEF08F0000E75
:10117000636F000E646F000E606F56695D8F120022
:1011800024A8C5EF08F0C7EF08F0D0EF08F02FC093
:101190001EF030C01FF031C020F032C021F0249882
:1011A0001200390197959797979197933D01649114
:1011B0006495649F649D6493609360956091120050
:1011C000E6EF08F00AEC07F0D9EC06F024B4EBEFF8
:1011D00008F0EDEF08F0E2EF08F01200600E3901C0
:1011E000D96F000EDB6F000EDD6F080EDF6F000E93
:1011F000DE6F120034C02FF035C030F036C031F051
:1012000037C032F0020E88EC05F0120034C02FF027
:1012100035C030F036C031F037C032F0000E88EC07
:1012200005F012003D0162BB18EF09F01BEF09F059
:10123000010E1CEF09F0000E12003D015EBB23EF12
:1012400009F026EF09F0010E27EF09F0000E120059
:101250003D0162B12EEF09F031EF09F0010E32EFDE
:1012600009F0000E12003D0163B539EF09F03CEFC3
:1012700009F0010E3DEF09F0000E12003D0160B9CA
:1012800044EF09F047EF09F0010E48EF09F0000EB6
:1012900012003D0163BF4FEF09F052EF09F0010E5C
:1012A00053EF09F0000E12008CEC08F09EEC08F0F1
:1012B000A8EC06F0EEEC08F012002450FC0B02093A
:1012C000246E1D5092EC09F0030E12009CEC09F004
:1012D0002494020E236E0F0E12009CEC09F024944D
:1012E000000E236E0F0E1200BBEC09F0B8EC09F0F3
:1012F0008DEC09F012000000010203040506070846
:10130000090A205097EC09F04EEC08F012003D015C
:101310005D9F000E636F628512002494000E236EA1
:101320000F0E12002F6E6000BFF055FD12002F6EE1
:101330006000BFF056FD12003D015D9F62855D8F2C
:101340001200000E8EEC07F01200BBEC09F0090E43
:101350001200BEEC09F0040E1200BEEC09F0030E00
:101360001200000E3D01636F12003D015651120044
:101370003D015D9B12003D015E8D12003D015E9DB1
:1013800012003D01545112003D015D8D12003D01DE
:101390005D9D12003D01639512003D0160991200B0
:1013A0003D01639F1200010E1200020E1200050E95
:0613B0001200010E120004
:047FFC00DAEF07F0C1
:020000040020DA
:10000000FF0FFF0FFF0FFF0FFF0FFF0FFF0FFF0F80
:020000040030CA
:0A0000008CFFF7FF9FFFFFFFFFFFDB
:00000001FF
